:020000040800F2
:10000000200A002061170008B5170008B51700087E
:10001000B5170008B5170008B5170008B517000890
:10002000B5170008B5170008B5170008B517000880
:10003000B5170008B5170008B5170008990500089E
:10004000B5170008B5170008B5170008B517000860
:10005000B5170008B5170008B5170008B517000850
:10006000B5170008B5170008B5170008B517000840
:10007000B5170008B5170008B5170008B517000830
:10008000B5170008B5170008AD070008B517000838
:10009000B5170008B5170008B5170008B517000810
:1000A000B5170008B5170008B5170008B517000800
:1000B000B517000811130008B5170008B517000898
:1000C000B5170008B5170008B5170008B5170008E0
:1000D000B5170008B5170008B5170008B5170008D0
:1000E000B5170008B5170008B5170008B5170008C0
:1000F000B5170008B5170008B5170008B5170008B0
:10010000B5170008B5170008B5170008B51700089F
:10011000B5170008B5170008B5170008B51700088F
:10012000B5170008B5170008B5170008B51700087F
:1001300010B5054C237833B9044B13B10448AFF321
:1001400000800123237010BD9800002000000000F3
:10015000E8A0010808B5064B1BB106480649AFF3F5
:1001600000800648036813B1054B03B1984708BDEA
:1001700000000000E8A001089C000020980000207A
:100180000000000000000000F8B5594B04461E783E
:10019000584D00F1100200F1180366BB35F81270DB
:1001A00035F81300BFB280B202F0E2FB4CA3D3E9F2
:1001B000002302F043FC4CA3D3E9002302F08AFAA7
:1001C00002F04EFE2B1993F8642080B2002A76D0FC
:1001D00004F1380235F812103FB209B2CF1B002FDC
:1001E000B8BF7F42092FD8BF83F8646035F812305A
:1001F000184480B232E035F8126035F81300B6B218
:1002000080B202F0B5FB36A3D3E9002302F016FC5E
:1002100035A3D3E9002302F05DFA02F021FE04F1D8
:1002200034022B1935F8121093F86420A6F50066F5
:1002300080B246F34A1689B2002A34D00E4433B253
:1002400023EAE373B3F5805FA8BF4FF480539BB2FA
:10025000184404F1380280B225F8123000F2FF7021
:10026000254B00B220EAE07041F6CB221B78904289
:10027000A8BF104680B22BB3254495F848301D4ADC
:1002800003B32C3402EB4402928803B212B29B1ADD
:10029000002BB8BF5B42322BC5BF002385F8483026
:1002A00080B280B2F8BD0844042E80B2D6DC93F848
:1002B0006420002AD2D1012283F86420CEE738449A
:1002C00080B2CBE70D4BC4EBC40485B203EB8404CE
:1002D00020462946E58200F087FE2846F8BD00BF8B
:1002E0007F6ABC749318E83F0000000000F097405C
:1002F00072010020A0010020F80000200001002071
:1003000038B52B4B1A8992B2B2F57A7F1BD32949A3
:100310000A7802B3284A1068B0F57A7F1FD2274CBA
:1003200000202388106001339BB2032B087034D95E
:10033000208000F061FE207800F0D2FF2088BDE828
:10034000384001F02BB91C4B1A491A6801200244AD
:1003500008701A6038BD184B0A701A6038BD184C06
:100360000020257810600870D5B91A8C134992B214
:10037000A3F868205A8C087892B2A3F86A209A8C65
:10038000012192B2A3F86C20DA8C217092B2A3F80A
:100390006E20BDE8384000F0A3BF23801846C8E7B0
:1003A000064B20701878BDE8384000F099BF00BFB8
:1003B000A0010020B700002074010020FA000020F6
:1003C00072010020000000002DE9F84F664E00F198
:1003D0000C03DFF8BC8136F8135098F800702DB28A
:1003E000B5F5486F0446D4BF00250125EFB9EDB13E
:1003F000331893F84420954215D0DFF87491C0EB80
:10040000C00009EB80004FF0010A83F844A000F01F
:10041000D1FD564BB3F800B0BBF1030F00F087805D
:1004200098F80030A3B9BDE8F88F8DB9344494F83A
:1004300044204D499542F6D031F8132040F6F2138E
:1004400092B29A42EFD8002384F84430BDE8F88F86
:10045000264496F8443044489D42E4D0012186F871
:10046000441096F8483003BBE300414D1A1B05EBDE
:100470008202404FB2F816C03F4A1F442C340CCAC7
:10048000C7E9002300EB4400A0F804C086F8481038
:10049000364B1B88032BC6D1A968384A384BA2FBC0
:1004A000010292099A60BDE8F88F3249324B51F847
:1004B000345004F11206D3E9002300EB8600551BEB
:1004C000E60031444560C1E90023406802F01AFEAD
:1004D00001F01AFF2B4B0146186802F05DFD02F097
:1004E00059FA1FA3D3E9002302F0A8FA02F000FD95
:1004F000254902F053FD2549074603F013F8054648
:1005000090B93846002102F0EFFF38BB384603F0BF
:1005100013F883B2164D341B05EB840420461946AC
:10052000E38200F061FDB3E741F6CB23F2E7144824
:1005300000F052FD4846394600F042FD514609F1AF
:100540001C0000F03DFD09F13800022100F038FDEB
:1005500009F15400594600F033FD61E72B46D9E715
:1005600010751F8014447340A0010020FA00002081
:100570000001002080010020C8000020ABAAAAAA28
:10058000DC000020D400002000E0FF440058D645E5
:10059000F8000020AFF3008010B50B4B0B4C1B781C
:1005A00013B1237803B1FEE70948012101F0AAF94C
:1005B00008490120D1E90023013243F100032070F2
:1005C000C1E9002310BD00BF73010020B900002065
:1005D00000240140C8000020F0B5042083B0184C6E
:1005E000012101F09FFC0820012101F09BFC102754
:1005F000204601A9382203232026124DADF80420FD
:100600008DF806308DF8077001F02CFB48224FF46E
:1006100080736661204601A98DF80720ADF804308B
:1006200001F020FB01A92846ADF8046001F01AFB97
:10063000284601A9ADF8047001F014FB03B0F0BD29
:1006400000080140000C0140084B1B88032B0BD80D
:10065000DFE803F00806040200F0F6B900F022B962
:1006600000F06AB900F00EB9704700BFFA00002030
:1006700030B41F4B93F8402093F8411042EA4102F6
:10068000D2B2032A0BD8DFE802F02E261302194D4E
:10069000194C1A49002201202A702270087093F820
:1006A000423003F0FF028BB9154B1A7030BC704713
:1006B000104C1148114993F8423000220125027074
:1006C0000A70257003F0FF02002BEDD00C4B0122C5
:1006D0001A7030BC7047074C074808490022227046
:1006E00002700A70DBE7034D044C0349D2E700BFF8
:1006F000A0010020C2000020D2000020FE00002047
:10070000F800002038B54FF48071114801F00CFB5F
:10071000104DD0F10103104C38BF00232021284692
:1007200084F8403001F000FBD0F1010338BF002312
:100730002846102184F8413001F0F6FAD0F101008A
:1007400038BF002084F84200BDE83840FFF790BF72
:1007500000080140000C0140A001002010B50E4C23
:10076000238801339BB2B3F5967F23800ED90B4AC1
:10077000137883F0010313704BB90949094B4FF407
:100780006040042208611A610023238010BD064BDB
:10079000187800F0A5FDF7E7B4000020B6000020AF
:1007A0000010014000080140FA000020F8B50220C6
:1007B00001F0AEF900B9FEE702202A4C01F0B6F9CB
:1007C000294B227819885D88284B02F1080023F80C
:1007D000121023F8105002F1100133F8115033F8C1
:1007E000127033F811603FB2B6B2BE1BADB205EB6A
:1007F000E605ADB223F8115002F1180133F811707B
:1008000033F8106033F8115036B2ADB2B8B2751B80
:100810000132D2B200EBA50080B2072A227023F881
:1008200011001CD9124B134D1B780BB12B78ABB9AF
:10083000FFF768FF104B01211B78002222702970FE
:10084000084C1BB1FFF78AFF2378DB000B4A0C49E9
:1008500038240020546113610870F8BDFEE7D3000E
:10086000F4E700BFB800002078010020A0010020BC
:10087000730100201C0200207201002000080140CA
:10088000B900002038B50024E5B22846FFF77CFC0B
:1008900001342846FFF798FD042CF5D1BDE8384017
:1008A000FFF72EBDF0B5002083B0FFF76DFC204EA2
:1008B000204F0125002414F0FF03C3EBC30206EB15
:1008C000820203F1100E03F1180110462AD037F806
:1008D0001E30B6F816E09BB2ADF8023037F8113092
:1008E000A2F816E0A3F500639BB2ADF80430BDF8A2
:1008F0000220BDF8043092B29BB21344C3F50053FA
:100900009BB2ADF80630BDF8061041F30E01490068
:1009100000F04EFB042D03D00135EDB20134CAE7DF
:1009200003B0F0BD1846FFF74FFDFFF7E9FCF3E712
:1009300000010020A001002070B500200024FFF776
:1009400023FC0F4E14F0FF00C0EBC0034FF0010575
:1009500006EB83030ED0F28A042DDA820FD0013425
:1009600014F0FF0005F10105C0EBC003EDB206EB8A
:100970008303F0D1FFF728FDFFF7C2FCEFE770BD5E
:10098000000100202F4B00F1180233F8121010B4B0
:1009900089B240F232340AB2A2421BDD40F2CC44AA
:1009A000A24240DD40F26564A24240DD40F6991467
:1009B000A24240DD40F63234A2423EDD40F6CC4455
:1009C000A2423CDDA1F58051B1F5E04F2CBF0321DF
:1009D000002100E0FD2100F1100233F812301BB2BB
:1009E000952B05DD40F2135293420DDC042300E009
:1009F0000523581840B220EAE0700528A8BF05205A
:100A000080B25DF8044B704740F63302934208DD34
:100A100040F6E342934208DDB3F57A6F09DA012329
:100A2000E7E70323E5E7FE21D5E70223E1E7FF211E
:100A3000D1E70023DDE70021CDE70121CBE702214B
:100A4000C9E700BFA00100202DE9F04F002083B0CE
:100A5000FFF79AFB4E4A4F4993688246A1FB030376
:100A60009B0918BF03EB43014B4F12BF49016021A3
:100A700001234A4E464CDFF83C919160BB60012552
:100A80004FF0600B41F6CB282846FFF77BFFC0B242
:100A90008DF807009DF8072094F8343052B2B25C0C
:100AA0009A421DD09DF807303C495BB2CA5C386859
:100AB0009BFBF2F200FB02F29DF80730E2615BB2B1
:100AC000052B07D8DFE803F05A50463A3003344B81
:100AD0001344E3619DF807305BB2F35C84F8343073
:100AE0009DF807209DF8073052B25BB2F05CBB68FE
:100AF00039F812209BFBF0F003FB00F3C2EB0A0273
:100B0000013592B2EDB2424528BF4246042D6286BD
:100B1000636204F11C04B7D10020FFF755FCFFF716
:100B2000EFFB03B0BDE8F08F1E4B1344E3619DF86B
:100B300007305BB2F35C84F83430D1E79DF80730BE
:100B400002F5FC025BB2F35C02F5FC62E26184F840
:100B50003430C5E7144B1344E3619DF807305BB2B2
:100B6000F35C84F83430BBE7104B1344E3619DF829
:100B700007305BB2F35C84F83430B1E70C4B1344BC
:100B8000E3619DF807305BB2F35C84F83430A7E78B
:100B900000010020ABAAAAAADC0000200C00002063
:100BA00074F889006E128300B6F97200073A6D007E
:100BB000739F5D0000000020084B1B88032B0BD89F
:100BC000DFE803F00806040200F0AEBA00F090BAC5
:100BD00000F072BA00F05EBA704700BFFA00002061
:100BE0002DE9F043B74B83B01B78804689462BB183
:100BF000C1F5FF5909F11F091FFA89F9B9F5805F9D
:100C00003AD2B14B4E4633F81930A8F80C30B8F848
:100C10001630A3F2FF739BB2ADF80230BDF802307C
:100C20001BB2002BBCBF0023ADF80230BDF8023070
:100C30001BB2B3F5006F2EDAA44B1B78002B40F0EB
:100C40001281A8F80E90A24B1B7893B1C9F580537E
:100C5000002BB8BF5B42C3F540639B001BB2B3F5EA
:100C6000005FDABF23EAE3739BB241F6FF73A8F893
:100C7000143003B0BDE8F083C9F5FF561F36B6B295
:100C8000C6F57F63904A0F3332F81330C3F5005333
:100C9000A8F80C30BBE7BDF802301BB2B3F5406FCB
:100CA00072DCBDF8020000B2A0F2FF7002F02AFA76
:100CB000884902F07BFA854B07461B78002B00F031
:100CC000E380B9F5805F80F053814FEA490080B23C
:100CD00002F014FA01F05EFE044638460D4601F0BB
:100CE00059FE02460B4600207B4901F0F3FC024608
:100CF0000B462046294601F0A1FE02F0D9F8774BB9
:100D0000044633F8160002F0F9F9394602F04EFABB
:100D100002F012FC2044A8F812006D4B1B78002B47
:100D2000A7D0C9F580500028B8BF4042C0F5406048
:100D3000800000B2B0F5005F00F3228120EAE0708D
:100D400001F016FE04460D46384601F023FE024629
:100D50000B460020604901F0BDFC22462B4601F005
:100D60006DFE02F0A5F85E4B044633F8160002F063
:100D7000C5F9394602F01AFA02F0DEFB2044A8F861
:100D8000140003B0BDE8F083BDF802301BB2B3F528
:100D9000805F00F3AB80BDF8020000B2A0F54060B8
:100DA00002F0B0F94FF06A5102F000FA474B01909F
:100DB0001B78002B40F0B1804A4B019F33F819009B
:100DC00002F09CF901F0E6FD044638460D4601F0BC
:100DD000E1FD02460B4600203F4901F07BFC024644
:100DE0000B462046294601F029FE02F061F83E4BF1
:100DF000019D044633F8190002F080F9294602F0FB
:100E0000D5F902F099FB2044A8F80E00304B1B786E
:100E1000002B3FF42EAF324B33F8160002F06EF980
:100E2000064601F0B7FD019F044638460D4601F025
:100E3000B1FD02460B460020274901F04BFC02465B
:100E40000B462046294601F0F9FD02F031F8019DDC
:100E500004462946304602F0A9F902F06DFB204411
:100E6000A8F8140005E7B9F5805F09D3C9F58053E8
:100E70005B0003F5FF531F339BB2A8F81230E2E684
:100E80004FEA49039BB2F8E7164B33F8190002F01A
:100E900035F9394602F08AF902F04EFB044648461D
:100EA00002F02CF9394605464FF07E5002F074F8F6
:100EB0000146284602F07AF902F03EFB2044A8F8E9
:100EC0000E002AE7C2000020BCC00008FE0000207F
:100ED000D200002010C07F3A0000F03FBC60010843
:100EE000BCA00008BCE00008BC200108284B1B780F
:100EF0006BB9284B33F81930A8F80E30264B1B7805
:100F0000002B3FF4B6AE254B33F81630AFE6244B3A
:100F100033F81630A8F81230F0E7224B019F33F86F
:100F2000160002F0EBF801F035FD044638460D4698
:100F300001F030FD02460B4600201B4901F0CAFBC0
:100F400002460B462046294601F078FD01F0B0FF2D
:100F5000134B019D044633F8160002F0CFF82946E2
:100F600002F024F902F0E8FA2044A8F812004DE754
:100F7000C9F58050400000F5FF501F3080B2A7E651
:100F800001A5D5E90045DFE60000000000FFBF40F5
:100F9000FE000020BC200108D2000020BCA00008F8
:100FA000BC800108BC6001080000F03FAFF3008086
:100FB00081807047014B0360704700BF88888808B4
:100FC000044BC1EBC10103EB81039B6803EBC3033B
:100FD0000360704700010020024B9B6803EBC303D2
:100FE00003607047DC000020024B53F8213083601F
:100FF000704700BF8C35000870B4224B83B059682D
:10100000024618686B4603C3032A19D8DFE802F0CA
:101010001B2A1B021C4B1D4A9E685D6A1C6CD86D06
:10102000916806EBC60605EBC50504EBC40400EBAE
:10103000C00001EBC1011E60DD619C635865116059
:1010400003B070BC7047104B114A0021998019847D
:101050009987A3F858101A60DA619A635A6503B049
:1010600070BC704708490A4DADF10202002332F806
:10107000024FC8188480CD501C33702BF7D103B0B9
:1010800070BC70478435000800010020DC0000209F
:101090008888880838B5074C04F170052368A16872
:1010A000204619442160C90C1C34FFF799FDAC425D
:1010B000F4D138BD0001002070B50C4D2B68AA6832
:1010C00028461344DE0C2B603146FFF789FD05F1FD
:1010D0001C047035B4F9043020469919C1F30C0191
:1010E0001C34FFF77DFDAC42F4D170BD000100203F
:1010F00070B50C4D2B68AA6828461344DE0C2B6093
:101100003146FFF76DFD05F11C047035B4F904306C
:1011100020469919C1F30C011C34FFF761FDAC4264
:10112000F4D170BD0001002038B50A4B0A4C1A6892
:10113000996804F170050A441A602368A168204682
:1011400019442160C90C1C34FFF74AFDAC42F4D1AC
:1011500038BD00BFDC0000200001002070B54FF456
:10116000017088B0012100F0DDFE0025032301A9F4
:101170002A48ADF804308DF806308DF8075000F09D
:1011800071FD4FF4C06000F01BFB01240226122306
:1011900002A88DF808308DF809608DF80A608DF886
:1011A0000B4000F017FB4FF460231D4803A9059383
:1011B00003958DF810408DF8115006958DF81C6040
:1011C00000F04AFB294622461548062300F0A4FBFE
:1011D000062332462146124800F09EFB2146104865
:1011E00000F068FB22460E484FF4087100F06CFBDB
:1011F0000B48214600F054FB094800F06FFB0848FB
:1012000000F072FB0028FAD1054800F071FB044899
:1012100000F074FB0028FAD108B070BD000801404E
:10122000002401402DE9F0430120194C8DB0014606
:1012300000F06CFEDFF85C902046DFF85C8000F088
:10124000B9FB4FF4807700234FF0020C4FF0800E73
:101250004FF40052204601A94FF4806620250393E5
:1012600005930B93CDF810C0CDF818E00A92CDF895
:101270000490CDF8088007970896099500F01CFCAB
:101280002046012100F038FC0DB0BDE8F08300BF1E
:10129000080002404C2401407801002010B51020C5
:1012A00082B0012100F03EFE4FF46044102201A9FB
:1012B000032309488DF807208DF80630ADF8044067
:1012C00000F0D0FC042301A90448ADF8043000F07C
:1012D000C9FC02B010BD00BF001001400008014071
:1012E000094A0A4B10B403284FF460444FF004013C
:1012F0001C6111611BBF4FF4005202FA00F05161F2
:1013000058615DF8044B704700080140001001402F
:10131000F8B52648012100F0E7FF00282BD0244B28
:10132000244C1B7813B1237803B1FEE7224B1F4AEC
:101330009F891E8DB3F84450B3F860001F4997860B
:1013400016879587A2F840000A78AAB91C4A127835
:10135000FAB1B3F86850B3F84C00198E194A9B8A59
:10136000A2F840509086118793871048012100F021
:10137000C7FF01232370F8BDB3F86650B3F84A00E5
:10138000D98D104A5B8AA2F84050908611879387C6
:10139000EBE7B3F86250B3F84600598D094ADB8990
:1013A000A2F84050908611879387DEE70004004042
:1013B000730100207101002000010020FE000020C8
:1013C000D20000200008004030B50D2083B0114C41
:1013D000012100F0A7FDC025182201A902230E4813
:1013E0008DF807208DF80630ADF8045000F03AFC77
:1013F00001A920460323ADF8043000F033FC4FF47C
:101400007073204601A9ADF8043000F02BFC03B046
:1014100030BD00BF000C01400008014070B5284CF1
:1014200088B00220012100F089FD002620464FF4FB
:10143000005301A90125ADF80830ADF80460ADF8FE
:101440000A60ADF8066000F09FFD4FF48053602203
:10145000204604A9ADF81630ADF81020ADF818609C
:10146000ADF8125000F0EAFD2046082100F018FF08
:10147000204604A900F02AFE2046082100F018FFAB
:10148000204604A900F06AFE2046082100F01AFF59
:10149000204604A900F0A8FE2046082100F01AFF0B
:1014A0002046294600F0EEFE204629462A4600F056
:1014B000DFFE2046294600F0CDFE08B070BD00BF1B
:1014C0000004004070B5284C88B00420012100F0D1
:1014D00035FD002620464FF4005301A90125ADF843
:1014E0000830ADF80460ADF80A60ADF8066000F0B1
:1014F0004BFD60224FF48053204604A9ADF8102024
:10150000ADF81630ADF81860ADF8125000F096FD49
:101510002046082100F0C4FE204604A9ADF8125070
:1015200000F0D4FD2046082100F0C2FE204604A9A8
:10153000ADF8125000F012FE2046082100F0C2FE65
:1015400004A92046ADF8125000F04EFE20460821B6
:1015500000F0C0FE2046294600F094FE20462946B1
:1015600000F078FE08B070BD0008004000B583B000
:10157000FFF72AFFFFF752FFFFF7A4FF01231D2209
:1015800001A88DF804208DF805308DF806308DF80F
:10159000073000F01FF903B05DF804FB38B5094CC3
:1015A000054600F0E3FA342000F0F4FA206800F079
:1015B0001DFB2068294600F039FBBDE8384000F0EB
:1015C000E1BA00BF14000020034B1B6818880428F0
:1015D00028BF0020704700BF140000202DE9F04113
:1015E00000F062F80B4D0C4C2F46A046002601E09F
:1015F000237843B92B78002BFAD0FFF725F823780E
:101600003E70002BF6D0FFF7D7FA002388F80030A1
:10161000ECE700BF1C0200207101002010B5002182
:1016200086B04FF0006000F00DF900F083FB4FF43E
:10163000803000F09FFB00F0B9FB0128044604D085
:1016400001A800F019FC06B010BD102000F082FACD
:10165000022000F075FA002000F0E6FB002000F008
:10166000F7FB4FF4806000F0E9FB4FF4404000F0DE
:10167000F9FB4FF480304FF4E01100F0B3FB20464B
:1016800000F0BAFB392000F065FC0028FAD00220F7
:1016900000F0B8FB00F0C0FB0828FBD101A800F067
:1016A000EBFB06B010BD00BFF8B51F491F4ADFF8BD
:1016B000ACE01F4B1F48204F204E214D00240C70E2
:1016C0001A608EF8004004703C7034702C70FFF784
:1016D000A5FFFEF781FFFFF741FDFFF7A3FDFFF731
:1016E000DDFDFFF771FF174D83B218462B80FFF722
:1016F00083FC2878FFF7F4FDFFF738FF124B134AFD
:101700001F68134DA2FB0717124BFF0A124A013F35
:10171000F0265F60072085F823604FF440519C60FD
:1017200018605160F8BD00BF7301002088E0AC4133
:10173000D4000020F8000020C2000020FC0000209F
:1017400071010020FA0000202C000020D34D62100F
:1017500000ED00E010E000E0002004E07201002055
:101760000E4880F309880E490E4A0F4B9A423EBF3D
:1017700051F8040B42F8040BF8E700200B490C4A1F
:1017800091423CBF41F8040BFAE7022080F3148831
:10179000BFF36F8FFFF722FFFEE70000200E00204F
:1017A000E8A0010800000020980000209800002018
:1017B00020020020684620F007018D46FEE700BFAA
:1017C00040F0BF60024B40F40030D860704700BF6B
:1017D00000ED00E0C37830B45BB90378012103F079
:1017E0001F02914030BC5B09144A203342F8231099
:1017F0007047134B4478DB680F22DB43C3F30223AB
:10180000C3F1040122FA03F38C408578017803EADE
:101810000502224301F160431201D2B203F5614394
:1018200083F800230378012103F01F02914030BCAC
:10183000024A5B0942F82310704700BF00E100E054
:1018400000ED00E021F0604121F07F01014B0843F1
:101850009860704700ED00E043680A6823F4702345
:1018600030B423F480730C79134343EA04234360B8
:1018700085688C68CA68094B22432B404D79134315
:1018800043EA450383600B7CC26A013BDBB222F46E
:10189000700242EA0353C36230BC7047FDF7F1FFA8
:1018A000836819B923F001038360704743F0010393
:1018B00083607047836819B923F48073836070472D
:1018C00043F4807383607047C9B243681AB923EA4E
:1018D000010141607047194341607047836843F0DC
:1018E00008038360704700BF8068C0F3C000704782
:1018F000836843F004038360704700BF8068C0F3CF
:1019000080007047836819B923F4A003836070478F
:1019100043F4A00383607047092970B41FD9A1F173
:101920000A0404EB44040726A64003FA04F4C5683D
:10193000062A25EA060343EA0403C3601DD90C2ADC
:1019400029D970BC0D3A02EB82021F23934001FAA1
:1019500002F2C16A21EA03031A43C262704701EB33
:1019600041040726A64003FA04F40569062A25EA7D
:10197000060343EA04030361E1D870BC013A02EBB9
:1019800082021F23934001FA02F2416B21EA030312
:101990001A4342637047073A02EB82021F239340C7
:1019A00070BC01FA02F2016B21EA03031A430263DD
:1019B000704700BF036833494FF6FE721A408842F1
:1019C0004FF000030260036043608360C36044D053
:1019D0002D4B984225D02D4B984230D02C4B98421D
:1019E00034D02C4B984223D02B4B98423BD02B4BDE
:1019F00098420FD02A4B98423CD02A4B984210D0A4
:101A0000294B98421BD0294B98421FD0284B984213
:101A10000ED0704753F87C2C42F0706243F87C2C57
:101A2000704753F8182C42F0F00243F8182C704716
:101A300053F8542C42F4702243F8542C704753F856
:101A40002C2C42F4706243F82C2C704753F8402C35
:101A500042F4704243F8402C7047164B5A6842F0EB
:101A60000F025A60704753F8682C42F4700243F832
:101A7000682C704753F8042C42F00F0243F8042CF2
:101A8000704700BF080002401C00024030000240C6
:101A900044000240580002406C00024080000240B6
:101AA000080402401C040240300402404404024086
:101AB00058040240000002408A68F0B40C6A0B69C6
:101AC00014434A691C438B69CE69224307684D6AF7
:101AD00013438C6A1E43354327F4FF43CE680F68D7
:101AE0004A682C4323F070032343036046608760F9
:101AF000C260F0BC704700BF29B902684FF6FE73A0
:101B0000134003607047036843F0010303607047AC
:101B1000C3004CBF034B044B1B6803420CBF0020A7
:101B2000012070470004024000000240C3004CBF87
:101B3000014B024B58607047000402400000024015
:101B4000034B1A6802F0380210431860704700BF58
:101B500000200240044B1A6822F010021A601A6832
:101B600010431860704700BF00200240024B034939
:101B7000034A59605A6070470020024023016745BC
:101B8000AB89EFCD024B1A6942F080021A617047AF
:101B900000200240014BD860704700BF0020024087
:101BA000084BDA68D1070BD4DA68520701D5022056
:101BB0007047DB6813F0100F0CBF04200320704740
:101BC000012070470020024010B50446FFF7E8FFEF
:101BD000012806D13CB1FFF7E3FF012804F1FF34EF
:101BE000F8D004B110BD052010BD00BF38B50546C2
:101BF0004FF43020FFF7E8FF042800D038BD0A4C2E
:101C00004FF43020236943F00203236165612369A7
:101C100043F040032361FFF7D7FF226941F6FD73CC
:101C20001340236138BD00BF0020024070B5044658
:101C30004FF400500D46FFF7C7FF042800D070BDD9
:101C4000074E4FF40050336943F0010333612580A0
:101C5000FFF7BAFF326941F6FE731340336170BD7E
:101C6000002002402DE9F003CD78EB0648BF8B78C9
:101C7000098805F00F0748BF1F4311F0FF0F23D05D
:101C8000D0F800C0002301264FF00F0802E0013316
:101C9000082B17D006FA03F202EA01049442F6D1A7
:101CA0009A0008FA02F907FA02F22CEA090C282D28
:101CB0004CEA020C35D0482D03F1010308BF046142
:101CC000082BE7D1C0F800C0FF2925D9D0F804C0FF
:101CD000002301264FF00F0802E00133082B19D032
:101CE00003F1080206FA02F202EA01049442F4D176
:101CF0009A0008FA02F907FA02F22CEA090C282DD8
:101D00004CEA020C0BD0482D03F1010308BF04611B
:101D1000082BE5D1C0F804C0BDE8F003704744616A
:101D2000DBE74461B3E700BF836819420CBF0020C2
:101D3000012070470D4B0E4A18684FF41F0140F008
:101D400001001860586802405A601A6822F08472D4
:101D500022F480321A601A6822F480221A605A68CB
:101D600022F4FE025A609960704700BF00100240E2
:101D70000000FFF80C4BB0F5803F1A6822F4803267
:101D80001A601A6822F480221A6008D0B0F5802FF9
:101D900004D11A6842F4A0221A60704770471A688A
:101DA00042F480321A6070470010024082B0002373
:101DB0000B4A019313689B030CD4019B01330193DD
:101DC000019BB3F5A06FF5D1054B1868C0F34040F7
:101DD00002B07047019B01330193019BF4E700BF00
:101DE00000100240034B5A6822F47C12114308434E
:101DF0005860704700100240014B1860704700BFE8
:101E000060004242034B5A6822F0030210435860BC
:101E1000704700BF00100240024B586800F00C00F1
:101E2000704700BF00100240034B5A6822F0F002D6
:101E300010435860704700BF00100240034B5A68BF
:101E400022F4E06210435860704700BF0010024067
:101E5000034B5A6822F4605242EAC000586070474F
:101E600000100240034B5A6822F44042104358606D
:101E7000704700BF001002401F4930B44B6803F0A8
:101E80000C03042B01D0082B20D01C4A02601A4BF3
:101E90001B495D681B4CC5F303154D5DEA4042606C
:101EA0005D68C5F302254D5D22FA05F585605D6824
:101EB000C5F3C225495DCA40C2605B68C3F3813384
:101EC000E35C30BCB2FBF3F2026170474A684B68D6
:101ED000C2F38342DC0302F1020207D54B689B0385
:101EE00004D4064B03FB02F20260D0E7064B03FB6F
:101EF00002F20260CBE700BF0010024000127A003D
:101F00001C0000201800002000093D00044B5A6905
:101F100019B922EA000058617047104358617047B0
:101F200000100240044B9A6919B922EA0000986136
:101F3000704710439861704700100240044BDA6903
:101F400019B922EA0000D86170471043D861704780
:101F5000001002404309012B0BD0022B094B00F06B
:101F60001F000CBF1B6A5B6A23FA00F000F001003F
:101F70007047044B00F01F001B6823FA00F000F0CC
:101F80000100704700100240294A0388904270B453
:101F90009BB212D002F5006290420ED0B0F1804F99
:101FA0000BD0A2F59832904207D002F580629042A1
:101FB00003D002F58062904203D14A8823F0700377
:101FC00013431C4A90422AD002F58062904226D0E8
:101FD000CE8823F440738D880C889BB202F58C3236
:101FE0003343904203808585048512D0124B98427A
:101FF0000FD003F5406398420BD003F580639842FD
:1020000007D003F58063984203D070BC012383821C
:1020100070470B7A70BC038601238382704703806C
:102020008B8870BC83850B8803850123838270476E
:10203000002C01400010004000340140038CF0B43B
:1020400023F001031B041B0C0384028C0D8984887C
:102050004F88038B2F4322F0020223F073031A4DA3
:1020600012041B040E88120CBFB21B0CA84247EAD4
:102070000202A4B243EA060316D005F50065A842A1
:1020800012D005F54065A8420ED005F58065A8423E
:102090000AD005F58065A84206D0C98884800383EC
:1020A000F0BC8186028470474E89CF898D8922F0E9
:1020B000080232433D438E8824F4407422F0040227
:1020C000ADB232432C43E8E7002C0140038CF0B45E
:1020D00023F010031B041B0C0384028C848822F061
:1020E0002002038B0D89120423F4E643120C42EA0A
:1020F00005124F881B040E88174D1B0C42EA07126D
:1021000043EA0623A84292B2A4B29BB20AD005F5D4
:102110000065A84206D0C98884800383F0BC01878B
:102120000284704722F08002B1F80AC092B28F890F
:1021300042EA0C1C24F440644FF6BF758A88CE89AD
:102140000CEA050544EA870445EA021244EA8604DB
:1021500092B2A4B2DFE700BF002C0140038CF0B4C0
:1021600023F480731B041B0C0384028C0D8922F45E
:10217000007284881204838B120C42EA05224F8875
:1021800023F07303174D1B040E8842EA07221B0C31
:10219000A84292B2A4B243EA06030AD005F500654C
:1021A000A84206D0C98884808383F0BC81870284DA
:1021B000704722F40062B1F80AC092B28F8942EAF5
:1021C0000C2C24F440544FF6FF358A88CE890CEA53
:1021D000050544EA071445EA022244EA061492B2CD
:1021E000A4B2DFE7002C0140038CF0B423F4805349
:1021F0001B041B0C0384028C848822F40052838B02
:102200000D89120423F4E643120C42EA05324F888A
:102210001B040E880E4D1B0C42EA073243EA0623CC
:10222000A84292B2A4B29BB20BD005F50065A842B9
:1022300007D0C98884808383F0BCA0F84010028452
:1022400070478D8924F4804444EA8514A4B2F0E7F1
:10225000002C0140038829B923F001031B041B0C47
:10226000038070479BB243F001030380704700BFB7
:1022700083899BB21AB923EA01018181704719430E
:1022800081817047038829B923F080031B041B0C4C
:10229000038070479BB243F080030380704700BF08
:1022A000038B23F008031B041B0C194301837047A5
:1022B000038B23F400631B041B0C43EA01218BB244
:1022C00003837047838B23F008031B041B0C194303
:1022D00081837047838B23F400631B041B0C43EA48
:1022E00001218BB283837047038A828911EA03003C
:1022F00092B203D011420CBF00200120704700BFF2
:10230000C94389B20182704708B500F007F8024955
:1023100001F000F808BD00BF1872313F70B58AB0F7
:10232000044600F065F82D4D064695F9003001335E
:1023300009D0204600F0B0F928B12046002101F074
:10234000F1F8034610B130460AB070BD244A204669
:102350000893019200F01EFB2D78CDE90401CDE930
:1023600002013DBB1F4B4FF06042CDE906232046E2
:10237000002101F0AFF878B102239D42009323D0F1
:10238000684600F081F9F8B1089B13BBDDE906014E
:1023900000F0AEFD0AB070BD0123022D00930ED0F7
:1023A000684600F071F950B10F4800F06FF9CDE9BF
:1023B0000601E9E70D4B0022CDE90623D7E701F03E
:1023C000DBF821230360EFE701F0D6F82223036056
:1023D000DAE701F0D1F8089B0360D7E7300000206E
:1023E000BCA00108FFFFEFC7C0A001080000F0FF7C
:1023F00020F000422DE9F047014603465AB3002879
:102400004ADBB0F1FF4F3BDAB0F5000F3CDB0027B1
:102410009148C3F31604204400F40002DB157F3B0F
:1024200082F07E501F4420434FF07E5107EBD2577D
:1024300000F0B2FD04F10F03C3F316030F2B0546A2
:1024400031DC002101F046F8002800F090804FB9FF
:102450000020BDE8F08700214FF04C4000F05AFF0B
:10246000BDE8F087384600F04DFE7C49054600F097
:102470009DFE7B490446284600F098FE0146204612
:1024800000F08CFDBDE8F0874FF0984100F08EFE23
:102490006FF018070346BBE700F07EFD002100F057
:1024A00039FFBDE8F0874FF0804100F077FD01462D
:1024B000284600F02FFF8046384600F023FE4146B4
:1024C0008146404600F072FE0146824600F06EFEF4
:1024D0006449064600F06AFE634900F05FFD31463C
:1024E00000F064FE614900F059FD314600F05EFEE7
:1024F0005F4900F053FD514600F058FE5D498246A9
:10250000304600F053FE5C4900F048FD314600F0D3
:102510004DFE5A4900F042FD314600F047FE0146AB
:10252000504600F03BFD564EC4F55713264403F5C4
:1025300022731E43002E824662DD4FF07C512846F6
:1025400000F034FE294600F031FE04464FBB5146F0
:1025500000F024FD414600F029FE0146204600F02F
:102560001BFD0146284600F017FDBDE8F08729460F
:10257000284600F01BFE43490446284600F016FE9C
:1025800001464FF07C5000F007FD0146204600F068
:102590000DFE04463FBB2846214600F0FDFCBDE889
:1025A000F0872E49484600F001FE51460646204677
:1025B00000F0F4FC414600F0F9FD29490746484681
:1025C00000F0F4FD0146384600F0E8FC01462046E4
:1025D00000F0E2FC294600F0DFFC0146304600F046
:1025E000DBFCBDE8F087384600F08CFD1B49074650
:1025F00000F0DCFD1A490646384600F0D7FDE5E755
:10260000EFB14846154900F0D1FD51460446284631
:1026100000F0C2FC414600F0C9FD1149064648469B
:1026200000F0C4FD0146304600F0B6FC294600F03B
:10263000B3FC0146204600F0AFFCBDE8F087014640
:10264000284600F0A9FC414600F0B0FD01462846AE
:1026500000F0A2FCBDE8F08720FB4A008071313F0A
:10266000D1F717379788173E25333A3E2549923ED2
:10267000ABAA2A3F4FD01C3E298E633ECDCCCC3E28
:10268000305CCFFFABAAAA3E002070470020014972
:10269000704700BF0000F87F30F0004001D10220F9
:1026A0007047A0F50003B3F1FE4F01D2042070473C
:1026B000054B421E9A4201D803207047B0F1FF43F8
:1026C00058425841704700BFFEFF7F0081F0004133
:1026D00002E000BF83F0004330B54FEA41044FEA07
:1026E000430594EA050F08BF90EA020F1FBF54EAA2
:1026F000000C55EA020C7FEA645C7FEA655C00F03E
:10270000E2804FEA5454D4EB5555B8BF6D420CDD0E
:102710002C4480EA020281EA030382EA000083EA91
:10272000010180EA020281EA0303362D88BF30BD31
:1027300011F0004F4FEA01314FF4801C4CEA113187
:1027400002D0404261EB410113F0004F4FEA0333E6
:102750004CEA133302D0524263EB430394EA050F71
:1027600000F0A780A4F10104D5F1200E0DDB02FAE0
:102770000EFC22FA05F2801841F1000103FA0EF274
:10278000801843FA05F359410EE0A5F120050EF13A
:10279000200E012A03FA0EFC28BF4CF0020C43FA6B
:1027A00005F3C01851EBE37101F0004507D54FF078
:1027B000000EDCF1000C7EEB00006EEB0101B1F5C8
:1027C000801F1BD3B1F5001F0CD349085FEA30000E
:1027D0004FEA3C0C04F101044FEA445212F5800F19
:1027E00080F09A80BCF1004F08BF5FEA500C50F1B6
:1027F000000041EB045141EA050130BD5FEA4C0C99
:10280000404141EB010111F4801FA4F10104E9D121
:1028100091F0000F04BF01460020B1FA81F308BF18
:102820002033A3F10B03B3F120020CDA0C3208DDE4
:1028300002F1140CC2F10C0201FA0CF021FA02F1BF
:102840000CE002F11402D8BFC2F1200C01FA02F12F
:1028500020FA0CFCDCBF41EA0C019040E41AA2BF54
:1028600001EB0451294330BD6FEA04041F3C1CDA1C
:102870000C340EDC04F11404C4F1200220FA04F03C
:1028800001FA02F340EA030021FA04F345EA0301E6
:1028900030BDC4F10C04C4F1200220FA02F001FAA8
:1028A00004F340EA0300294630BD21FA04F029462A
:1028B00030BD94F0000F83F4801306BF81F48011C3
:1028C0000134013D4EE77FEA645C18BF7FEA655C36
:1028D00029D094EA050F08BF90EA020F05D054EA08
:1028E000000C04BF1946104630BD91EA030F1EBF0D
:1028F0000021002030BD5FEA545C05D14000494111
:1029000028BF41F0004130BD14F580043CBF01F503
:10291000801130BD01F0004545F0FE4141F47001E9
:102920004FF0000030BD7FEA645C1ABF19461046C4
:102930007FEA655C1CBF0B46024650EA013406BFC5
:1029400052EA033591EA030F41F4002130BD00BF84
:1029500090F0000F04BF0021704730B54FF4806441
:1029600004F132044FF000054FF0000150E700BFC2
:1029700090F0000F04BF0021704730B54FF4806421
:1029800004F1320410F0004548BF40424FF000010E
:102990003EE700BF42004FEAE2014FEA31014FEA51
:1029A00002701FBF12F07F4393F07F4F81F06051A0
:1029B000704792F0000F14BF93F07F4F704730B50F
:1029C0004FF4607401F0004521F0004120E700BFA2
:1029D00050EA010208BF704730B54FF000050AE029
:1029E00050EA010208BF704730B511F0004502D52A
:1029F000404261EB41014FF4806404F132045FEA2C
:102A0000915C3FF4DCAE4FF003025FEADC0C18BFD0
:102A100003325FEADC0C18BF033202EBDC02C2F1C6
:102A2000200300FA03FC20FA02F001FA03FE40EA58
:102A30000E0021FA02F11444C1E600BF70B54FF058
:102A4000FF0C4CF4E06C1CEA11541DBF1CEA13553A
:102A500094EA0C0F95EA0C0F00F0DEF82C4481EAA2
:102A6000030621EA4C5123EA4C5350EA013518BFC2
:102A700052EA033541F4801143F4801338D0A0FBAF
:102A800002CE4FF00005E1FB02E506F00042E0FB5C
:102A900003E54FF00006E1FB03569CF0000F18BF62
:102AA0004EF0010EA4F1FF04B6F5007F64F540740A
:102AB00004D25FEA4E0E6D4146EB060642EAC6219D
:102AC00041EA55514FEAC52040EA5E504FEACE2E0A
:102AD000B4F1FD0C88BFBCF5E06F1ED8BEF1004F0D
:102AE00008BF5FEA500E50F1000041EB045170BD89
:102AF00006F0004646EA010140EA020081EA0301CD
:102B0000B4EB5C04C2BFD4EB0C0541EA045170BDC8
:102B100041F480114FF0000E013C00F3AB8014F142
:102B2000360FDEBF002001F0004170BDC4F100048B
:102B3000203C35DA0C341BDC04F11404C4F120050C
:102B400000FA05F320FA04F001FA05F240EA020067
:102B500001F0004221F0004110EBD37021FA04F69D
:102B600042EB06015EEA430E08BF20EAD37070BD57
:102B7000C4F10C04C4F1200500FA04F320FA05F0B6
:102B800001FA04F240EA020001F0004110EBD370B8
:102B900041F100015EEA430E08BF20EAD37070BD28
:102BA000C4F1200500FA05F24EEA020E20FA04F301
:102BB00001FA05F243EA020321FA04F001F00041B0
:102BC00021FA04F220EA020000EBD3705EEA430E21
:102BD00008BF20EAD37070BD94F0000F0FD101F050
:102BE0000046400041EB010111F4801F08BF013C89
:102BF000F7D041EA060195F0000F18BF704703F0C7
:102C00000046520043EB030313F4801F08BF013D4D
:102C1000F7D043EA0603704794EA0C0F0CEA135509
:102C200018BF95EA0C0F0CD050EA410618BF52EAC3
:102C30004306D1D181EA030101F000414FF00000C9
:102C400070BD50EA410606BF1046194652EA4306D7
:102C500019D094EA0C0F02D150EA013613D195EA4B
:102C60000C0F05D152EA03361CBF104619460AD193
:102C700081EA030101F0004141F0FE4141F470019D
:102C80004FF0000070BD41F0FE4141F4780170BD8D
:102C900070B54FF0FF0C4CF4E06C1CEA11541DBFF2
:102CA0001CEA135594EA0C0F95EA0C0F00F0A7F8F4
:102CB000A4EB050481EA030E52EA03354FEA013121
:102CC00000F088804FEA03334FF0805545EA131334
:102CD00043EA12634FEA022245EA111545EA1065FC
:102CE0004FEA00260EF000419D4208BF964244F193
:102CF000FD0404F5407402D25B084FEA3202B61AB2
:102D000065EB03055B084FEA32024FF480104FF485
:102D1000002CB6EB020E75EB030E22BFB61A7546F9
:102D200040EA0C005B084FEA3202B6EB020E75EB8C
:102D3000030E22BFB61A754640EA5C005B084FEAF4
:102D40003202B6EB020E75EB030E22BFB61A7546C1
:102D500040EA9C005B084FEA3202B6EB020E75EBCC
:102D6000030E22BFB61A754640EADC0055EA060E8D
:102D700018D04FEA051545EA16754FEA06164FEAD0
:102D8000C30343EA52734FEAC2025FEA1C1CC0D17C
:102D900011F4801F0BD141EA00014FF000004FF009
:102DA000004CB6E711F4801F04BF01430020B4F1CA
:102DB000FD0C88BFBCF5E06F3FF6AFAEB5EB030C82
:102DC00004BFB6EB020C5FEA500C50F1000041EB7F
:102DD000045170BD0EF0004E4EEA113114EB5C044C
:102DE000C2BFD4EB0C0541EA045170BD41F480111F
:102DF0004FF0000E013C90E645EA060E8DE60CEA27
:102E0000135594EA0C0F08BF95EA0C0F3FF43BAF43
:102E100094EA0C0F0AD150EA01347FF434AF95EAFA
:102E20000C0F7FF425AF104619462CE795EA0C0FDE
:102E300006D152EA03353FF4FDAE1046194622E7AB
:102E400050EA410618BF52EA43067FF4C5AE50EA85
:102E500041047FF40DAF52EA43057FF4EBAE12E775
:102E60004FEA410212F5001215D211D56FF47873B2
:102E7000B3EB625212D94FEAC12343F0004343EA55
:102E8000505311F0004F23FA02F018BF4042704730
:102E90004FF00000704750EA013005D111F00040BA
:102EA00008BF6FF0004070474FF00000704700BF50
:102EB0004A0011D212F5001211D20DD56FF47873B9
:102EC000B3EB62520ED44FEAC12343F0004343EA0E
:102ED000505323FA02F070474FF00000704750EA59
:102EE000013002D14FF0FF3070474FF000007047C3
:102EF0004FEA4102B2F1E04324BFB3F5001CDCF11C
:102F0000FE5C0DD901F0004C4FEAC0024CEA507053
:102F1000B2F1004F40EB830008BF20F00100704782
:102F200011F0804F21D113F13872BCBF01F0004085
:102F3000704741F480114FEA5252C2F11802C2F1B7
:102F4000200C10FA0CF320FA02F018BF40F0010038
:102F50004FEAC1234FEAD32303FA0CFC40EA0C00EA
:102F600023FA02F34FEA4303CCE77FEA625307D127
:102F700050EA01331EBF4FF0FE4040F4400070475E
:102F800001F0004040F0FE4040F40000704700BFF8
:102F900080F0004002E000BF81F0004142001FBF0E
:102FA0005FEA410392EA030F7FEA226C7FEA236C17
:102FB0006AD04FEA1262D2EB1363C1BFD21841400C
:102FC00048404140B8BF5B42192B88BF704710F0A2
:102FD000004F40F4000020F07F4018BF404211F045
:102FE000004F41F4000121F07F4118BF494292EAAD
:102FF000030F3FD0A2F1010241FA03FC10EB0C00D9
:10300000C3F1200301FA03F100F0004302D5494265
:1030100060EB4000B0F5000F13D3B0F1807F06D312
:1030200040084FEA310102F10102FE2A51D2B1F10A
:10303000004F40EBC25008BF20F0010040EA0300FF
:103040007047490040EB000010F4000FA2F10102AC
:10305000EDD1B0FA80FCACF1080CB2EB0C0200FA36
:103060000CF0AABF00EBC25052421843BCBFD04084
:103070001843704792F0000F81F4000106BF80F4FE
:1030800000000132013BB5E74FEA41037FEA226CC1
:1030900018BF7FEA236C21D092EA030F04D092F08C
:1030A000000F08BF0846704790EA010F1CBF0020C0
:1030B000704712F07F4F04D1400028BF40F000401D
:1030C000704712F100723CBF00F50000704700F03D
:1030D000004343F0FE4040F4000070477FEA226264
:1030E00016BF08467FEA23630146420206BF5FEA35
:1030F000412390EA010F40F4800070474FF0000335
:1031000004E000BF10F0004348BF40425FEA000CFB
:1031100008BF704743F0964301464FF000001CE0A3
:1031200050EA010208BF70474FF000030AE000BFF9
:1031300050EA010208BF704711F0004302D5404237
:1031400061EB41015FEA010C02BF844601460020A9
:1031500043F0B64308BFA3F18053A3F50003BCFAC4
:103160008CF2083AA3EBC25310DB01FA02FC634471
:1031700000FA02FCC2F12002BCF1004F20FA02F278
:1031800043EB020008BF20F00100704702F120026B
:1031900001FA02FCC2F1200250EA4C0021FA02F2CC
:1031A00043EB020008BF20EADC7070474FF0FF0CD1
:1031B0001CEAD0521EBF1CEAD15392EA0C0F93EACC
:1031C0000C0F6FD01A4480EA010C400218BF5FEA6E
:1031D00041211ED04FF0006343EA501043EA5111E1
:1031E000A0FB01310CF00040B1F5000F3EBF4900DB
:1031F00041EAD3715B0040EA010062F17F02FD2ADF
:103200001DD8B3F1004F40EBC25008BF20F00100C1
:10321000704790F0000F0CF0004C08BF49024CEAD8
:10322000502040EA51207F3AC2BFD2F1FF0340EA6A
:10323000C250704740F400004FF00003013A5DDCDB
:1032400012F1190FDCBF00F000407047C2F100021C
:10325000410021FA02F1C2F1200200FA02FC5FEA09
:10326000310040F1000053EA4C0308BF20EADC7053
:10327000704792F0000F00F0004C02BF400010F4C5
:10328000000F013AF9D040EA0C0093F0000F01F072
:10329000004C02BF490011F4000F013BF9D041EA94
:1032A0000C018FE70CEAD15392EA0C0F18BF93EA96
:1032B0000C0F0AD030F0004C18BF31F0004CD8D1C0
:1032C00080EA010000F00040704790F0000F17BF47
:1032D00090F0004F084691F0000F91F0004F14D08D
:1032E00092EA0C0F01D142020FD193EA0C0F03D1E5
:1032F0004B0218BF084608D180EA010000F00040E8
:1033000040F0FE4040F40000704740F0FE4040F4C2
:10331000400070474FF0FF0C1CEAD0521EBF1CEA61
:10332000D15392EA0C0F93EA0C0F69D0A2EB03027F
:1033300080EA010C49024FEA402037D04FF0805319
:1033400043EA111143EA10130CF000408B4238BFDE
:103350005B0042F17D024FF4000C8B4224BF5B1AEC
:1033600040EA0C00B3EB510F24BFA3EB510340EA3A
:103370005C00B3EB910F24BFA3EB910340EA9C00E8
:10338000B3EBD10F24BFA3EBD10340EADC001B0158
:1033900018BF5FEA1C1CE0D1FD2A3FF650AF8B42FC
:1033A00040EBC25008BF20F0010070470CF0004C09
:1033B0004CEA50207F32C2BFD2F1FF0340EAC25034
:1033C000704740F400004FF00003013A37E792F0F5
:1033D000000F00F0004C02BF400010F4000F013A53
:1033E000F9D040EA0C0093F0000F01F0004C02BF4E
:1033F000490011F4000F013BF9D041EA0C0195E7B7
:103400000CEAD15392EA0C0F08D142027FF47DAF4F
:1034100093EA0C0F7FF470AF084676E793EA0C0F3F
:1034200004D14B023FF44CAF08466EE730F0004C3D
:1034300018BF31F0004CCAD130F000427FF45CAFCD
:1034400031F000437FF43CAF5FE700BF4FF0FF3C3B
:1034500006E000BF4FF0010C02E000BF4FF0010C8E
:103460004DF804CD4FEA40024FEA41037FEA226C57
:1034700018BF7FEA236C11D001B052EA530C18BF79
:1034800090EA010F58BFB2EB030088BFC81738BFDE
:103490006FEAE17018BF40F0010070477FEA226CCC
:1034A00002D15FEA402C05D17FEA236CE4D15FEAC8
:1034B000412CE1D05DF8040B704700BF84460846FC
:1034C0006146FFE70FB5FFF7C9FF002848BF10F1BD
:1034D000000F0FBD4DF808EDFFF7F4FF0CBF012002
:1034E00000205DF808FB00BF4DF808EDFFF7EAFF8C
:1034F00034BF012000205DF808FB00BF4DF808ED47
:10350000FFF7E0FF94BF012000205DF808FB00BF3B
:103510004DF808EDFFF7D2FF94BF012000205DF8C1
:1035200008FB00BF4DF808EDFFF7C8FF34BF0120CE
:1035300000205DF808FB00BF42000ED2B2F1FE4F42
:103540000BD34FF09E03B3EB126209D44FEA002372
:1035500043F0004323FA02F070474FF00000704739
:1035600012F1610F01D1420202D14FF0FF307047DA
:103570004FF00000704700BF014B1868704700BF54
:103580009400002000000018001000083100000026
:103590003100000031000000310000003100000067
:1035A0003100000032000000320000003200000054
:1035B0003200000032000000320000003200000043
:1035C0003200000032000000330000003300000031
:1035D000330000003300000033000000330000001F
:1035E000330000003300000033000000340000000E
:1035F00034000000340000003400000034000000FB
:1036000034000000340000003400000035000000E9
:1036100035000000350000003500000035000000D6
:1036200035000000350000003500000035000000C6
:1036300036000000360000003600000036000000B2
:1036400036000000360000003600000036000000A2
:10365000370000003700000037000000370000008E
:10366000370000003700000037000000370000007E
:10367000380000003800000038000000380000006A
:10368000380000003800000038000000380000005A
:103690003900000039000000390000003900000046
:1036A0003900000039000000390000003900000036
:1036B0003A0000003A0000003A0000003A00000022
:1036C0003A0000003A0000003A0000003B00000011
:1036D0003B0000003B0000003B0000003B000000FE
:1036E0003B0000003B0000003B0000003C000000ED
:1036F0003C0000003C0000003C0000003C000000DA
:103700003C0000003C0000003D0000003D000000C7
:103710003D0000003D0000003D0000003D000000B5
:103720003D0000003D0000003E0000003E000000A3
:103730003E0000003E0000003E0000003E00000091
:103740003E0000003F0000003F0000003F0000007E
:103750003F0000003F0000003F0000003F0000006D
:103760004000000040000000400000004000000059
:103770004000000040000000400000004100000048
:103780004100000041000000410000004100000035
:103790004100000041000000420000004200000023
:1037A0004200000042000000420000004200000011
:1037B00043000000430000004300000043000000FD
:1037C00043000000430000004300000044000000EC
:1037D00044000000440000004400000044000000D9
:1037E00044000000440000004500000045000000C7
:1037F00045000000450000004500000045000000B5
:1038000046000000460000004600000046000000A0
:10381000460000004600000047000000470000008E
:10382000470000004700000047000000470000007C
:103830004700000048000000480000004800000069
:103840004800000048000000480000004900000057
:103850004900000049000000490000004900000044
:10386000490000004A0000004A0000004A00000031
:103870004A0000004A0000004A0000004B0000001F
:103880004B0000004B0000004B0000004B0000000C
:103890004B0000004C0000004C0000004C000000F9
:1038A0004C0000004C0000004C0000004D000000E7
:1038B0004D0000004D0000004D0000004D000000D4
:1038C0004D0000004E0000004E0000004E000000C1
:1038D0004E0000004E0000004F0000004F000000AE
:1038E0004F0000004F0000004F0000004F0000009C
:1038F0005000000050000000500000005000000088
:103900005000000051000000510000005100000074
:103910005100000051000000510000005200000062
:10392000520000005200000052000000520000004F
:10393000530000005300000053000000530000003B
:103940005300000053000000540000005400000029
:103950005400000054000000540000005500000016
:103960005500000055000000550000005500000003
:1039700056000000560000005600000056000000EF
:1039800056000000570000005700000057000000DC
:1039900057000000570000005800000058000000C9
:1039A00058000000580000005800000058000000B7
:1039B00059000000590000005900000059000000A3
:1039C000590000005A0000005A0000005A00000090
:1039D0005A0000005B0000005B0000005B0000007C
:1039E0005B0000005B0000005C0000005C00000069
:1039F0005C0000005C0000005C0000005D00000056
:103A00005D0000005D0000005D0000005D00000042
:103A10005E0000005E0000005E0000005E0000002E
:103A20005E0000005F0000005F0000005F0000001B
:103A30005F00000060000000600000006000000007
:103A400060000000600000006100000061000000F4
:103A500061000000610000006100000062000000E1
:103A600062000000620000006200000063000000CD
:103A700063000000630000006300000063000000BA
:103A800064000000640000006400000064000000A6
:103A90006500000065000000650000006500000092
:103AA000660000006600000066000000660000007E
:103AB000660000006700000067000000670000006B
:103AC0006700000068000000680000006800000057
:103AD0006800000069000000690000006900000043
:103AE00069000000690000006A0000006A00000030
:103AF0006A0000006A0000006B0000006B0000001C
:103B00006B0000006B0000006C0000006C00000007
:103B10006C0000006C0000006D0000006D000000F3
:103B20006D0000006D0000006E0000006E000000DF
:103B30006E0000006E0000006F0000006F000000CB
:103B40006F0000006F0000007000000070000000B7
:103B500070000000700000007100000071000000A3
:103B6000710000007100000072000000720000008F
:103B7000720000007200000073000000730000007B
:103B80007300000073000000740000007400000067
:103B90007400000074000000750000007500000053
:103BA000750000007500000076000000760000003F
:103BB000760000007700000077000000770000002A
:103BC0007700000078000000780000007800000016
:103BD0007800000079000000790000007900000002
:103BE0007A0000007A0000007A0000007A000000ED
:103BF0007B0000007B0000007B0000007B000000D9
:103C00007C0000007C0000007C0000007D000000C3
:103C10007D0000007D0000007D0000007E000000AF
:103C20007E0000007E0000007F0000007F0000009A
:103C30007F0000007F000000800000008000000086
:103C40008000000081000000810000008100000071
:103C5000810000008200000082000000820000005D
:103C60008300000083000000830000008300000048
:103C70008400000084000000840000008500000033
:103C8000850000008500000086000000860000001E
:103C9000860000008600000087000000870000000A
:103CA00087000000880000008800000088000000F5
:103CB0008900000089000000890000008A000000DF
:103CC0008A0000008A0000008A0000008B000000CB
:103CD0008B0000008B0000008C0000008C000000B6
:103CE0008C0000008D0000008D0000008D000000A1
:103CF0008E0000008E0000008E0000008F0000008B
:103D00008F0000008F000000900000009000000075
:103D10009000000090000000910000009100000061
:103D2000910000009200000092000000920000004C
:103D30009300000093000000930000009400000036
:103D40009400000094000000950000009500000021
:103D5000950000009600000096000000960000000C
:103D600097000000970000009700000098000000F6
:103D700098000000990000009900000099000000E0
:103D80009A0000009A0000009A0000009B000000CA
:103D90009B0000009B0000009C0000009C000000B5
:103DA0009C0000009D0000009D0000009D000000A0
:103DB0009E0000009E0000009E0000009F0000008A
:103DC0009F000000A0000000A0000000A000000074
:103DD000A1000000A1000000A1000000A20000005E
:103DE000A2000000A2000000A3000000A300000049
:103DF000A4000000A4000000A4000000A500000032
:103E0000A5000000A5000000A6000000A60000001C
:103E1000A6000000A7000000A7000000A800000006
:103E2000A8000000A8000000A9000000A9000000F0
:103E3000AA000000AA000000AA000000AB000000D9
:103E4000AB000000AB000000AC000000AC000000C4
:103E5000AD000000AD000000AD000000AE000000AD
:103E6000AE000000AF000000AF000000AF00000097
:103E7000B0000000B0000000B1000000B100000080
:103E8000B1000000B2000000B2000000B30000006A
:103E9000B3000000B3000000B4000000B400000054
:103EA000B5000000B5000000B5000000B60000003D
:103EB000B6000000B7000000B7000000B700000027
:103EC000B8000000B8000000B9000000B900000010
:103ED000B9000000BA000000BA000000BB000000FA
:103EE000BB000000BC000000BC000000BC000000E3
:103EF000BD000000BD000000BE000000BE000000CC
:103F0000BF000000BF000000BF000000C0000000B4
:103F1000C0000000C1000000C1000000C20000009D
:103F2000C2000000C2000000C3000000C300000087
:103F3000C4000000C4000000C5000000C50000006F
:103F4000C6000000C6000000C6000000C700000058
:103F5000C7000000C8000000C8000000C900000041
:103F6000C9000000CA000000CA000000CA0000002A
:103F7000CB000000CB000000CC000000CC00000013
:103F8000CD000000CD000000CE000000CE000000FB
:103F9000CF000000CF000000D0000000D0000000E3
:103FA000D0000000D1000000D1000000D2000000CD
:103FB000D2000000D3000000D3000000D4000000B5
:103FC000D4000000D5000000D5000000D60000009D
:103FD000D6000000D7000000D7000000D800000085
:103FE000D8000000D9000000D9000000DA0000006D
:103FF000DA000000DB000000DB000000DC00000055
:10400000DC000000DD000000DD000000DE0000003C
:10401000DE000000DF000000DF000000E000000024
:10402000E0000000E1000000E1000000E20000000C
:10403000E2000000E3000000E3000000E4000000F4
:10404000E4000000E5000000E5000000E6000000DC
:10405000E6000000E7000000E7000000E8000000C4
:10406000E8000000E9000000E9000000EA000000AC
:10407000EA000000EB000000EB000000EC00000094
:10408000EC000000ED000000EE000000EE0000007B
:10409000EF000000EF000000F0000000F000000062
:1040A000F1000000F1000000F2000000F20000004A
:1040B000F3000000F3000000F4000000F500000031
:1040C000F5000000F6000000F6000000F700000018
:1040D000F7000000F8000000F8000000F900000000
:1040E000FA000000FA000000FB000000FB000000E6
:1040F000FC000000FC000000FD000000FE000000CD
:10410000FE000000FF000000FF00000000010000B2
:104110000001000001010000020100000201000096
:10412000030100000301000004010000040100007D
:104130000501000006010000060100000701000063
:10414000070100000801000009010000090100004A
:104150000A0100000A0100000B0100000C01000030
:104160000C0100000D0100000D0100000E01000017
:104170000F0100000F0100001001000010010000FD
:1041800011010000120100001201000013010000E3
:1041900014010000140100001501000015010000C9
:1041A00016010000170100001701000018010000AF
:1041B00019010000190100001A0100001A01000095
:1041C0001B0100001C0100001C0100001D0100007B
:1041D0001E0100001E0100001F0100002001000060
:1041E0002001000021010000220100002201000046
:1041F000230100002301000024010000250100002C
:104200002501000026010000270100002701000011
:104210002801000029010000290100002A010000F6
:104220002B0100002B0100002C0100002D010000DB
:104230002D0100002E0100002F01000030010000C0
:1042400030010000310100003201000032010000A5
:10425000330100003401000034010000350100008A
:10426000360100003601000037010000380100006F
:1042700039010000390100003A0100003B01000053
:104280003B0100003C0100003D0100003D01000039
:104290003E0100003F01000040010000400100001D
:1042A0004101000042010000430100004301000001
:1042B00044010000450100004501000046010000E6
:1042C00047010000480100004801000049010000CA
:1042D0004A0100004B0100004B0100004C010000AE
:1042E0004D0100004E0100004E0100004F01000092
:1042F0005001000051010000510100005201000076
:104300005301000054010000540100005501000059
:10431000560100005701000057010000580100003D
:10432000590100005A0100005B0100005B01000020
:104330005C0100005D0100005E0100005F01000003
:104340005F010000600100006101000062010000E7
:1043500062010000630100006401000065010000CB
:1043600066010000660100006701000068010000AE
:10437000690100006A0100006B0100006B01000090
:104380006C0100006D0100006E0100006F01000073
:104390006F01000070010000710100007201000057
:1043A0007301000074010000740100007501000039
:1043B000760100007701000078010000790100001B
:1043C0007A0100007A0100007B0100007C010000FE
:1043D0007D0100007E0100007F01000080010000DF
:1043E00080010000810100008201000083010000C3
:1043F00084010000850100008601000086010000A4
:104400008701000088010000890100008A01000086
:104410008B0100008C0100008D0100008E01000066
:104420008E0100008F01000090010000910100004A
:10443000920100009301000094010000950100002A
:10444000960100009701000098010000980100000B
:10445000990100009A0100009B0100009C010000EE
:104460009D0100009E0100009F010000A0010000CE
:10447000A1010000A2010000A3010000A4010000AE
:10448000A5010000A6010000A6010000A701000090
:10449000A8010000A9010000AA010000AB01000072
:1044A000AC010000AD010000AE010000AF01000052
:1044B000B0010000B1010000B2010000B301000032
:1044C000B4010000B5010000B6010000B701000012
:1044D000B8010000B9010000BA010000BB010000F2
:1044E000BC010000BD010000BE010000BF010000D2
:1044F000C0010000C1010000C2010000C3010000B2
:10450000C4010000C5010000C6010000C701000091
:10451000C8010000C9010000CA010000CB01000071
:10452000CC010000CD010000CE010000CF01000051
:10453000D0010000D1010000D2010000D301000031
:10454000D5010000D6010000D7010000D80100000D
:10455000D9010000DA010000DB010000DC010000ED
:10456000DD010000DE010000DF010000E0010000CD
:10457000E1010000E2010000E3010000E5010000AC
:10458000E6010000E7010000E8010000E901000089
:10459000EA010000EB010000EC010000ED01000069
:1045A000EE010000F0010000F1010000F201000046
:1045B000F3010000F4010000F5010000F601000025
:1045C000F7010000F9010000FA010000FB01000002
:1045D000FC010000FD010000FE010000FF010000E1
:1045E00001020000020200000302000004020000B9
:1045F0000502000006020000080200000902000097
:104600000A0200000B0200000C0200000D02000074
:104610000F02000010020000110200001202000050
:10462000130200001502000016020000170200002D
:1046300018020000190200001B0200001C0200000A
:104640001D0200001E0200001F02000021020000E7
:1046500022020000230200002402000026020000C3
:104660002702000028020000290200002B0200009F
:104670002C0200002D0200002E020000300200007B
:104680003102000032020000330200003502000057
:104690003602000037020000380200003A02000033
:1046A0003B0200003C0200003E0200003F0200000E
:1046B00040020000420200004302000044020000E9
:1046C00045020000470200004802000049020000C5
:1046D0004B0200004C0200004D0200004F0200009F
:1046E000500200005102000053020000540200007A
:1046F0005502000057020000580200005902000055
:104700005B0200005C0200005D0200005F0200002E
:104710006002000062020000630200006402000008
:104720006602000067020000680200006A020000E2
:104730006B0200006D0200006E0200006F020000BC
:104740007102000072020000740200007502000095
:104750007602000078020000790200007B0200006F
:104760007C0200007E0200007F0200008002000048
:104770008202000083020000850200008602000021
:1047800088020000890200008B0200008C020000F9
:104790008E0200008F0200009002000092020000D2
:1047A00093020000950200009602000098020000AB
:1047B000990200009B0200009C0200009E02000083
:1047C0009F020000A1020000A2020000A40200005B
:1047D000A5020000A7020000A9020000AA02000032
:1047E000AC020000AD020000AF020000B002000009
:1047F000B2020000B3020000B5020000B6020000E1
:10480000B8020000BA020000BB020000BD020000B6
:10481000BE020000C0020000C1020000C30200008E
:10482000C5020000C6020000C8020000C902000064
:10483000CB020000CD020000CE020000D00200003A
:10484000D2020000D3020000D5020000D602000010
:10485000D8020000DA020000DB020000DD020000E6
:10486000DF020000E0020000E2020000E4020000BB
:10487000E5020000E7020000E9020000EA02000091
:10488000EC020000EE020000EF020000F102000066
:10489000F3020000F4020000F6020000F80200003B
:1048A000FA020000FB020000FD020000FF0200000F
:1048B00000030000020300000403000006030000E0
:1048C00007030000090300000B0300000D030000B4
:1048D0000E03000010030000120300001403000088
:1048E0001503000017030000190300001B0300005C
:1048F0001D0300001E03000020030000220300002F
:104900002403000026030000270300002903000001
:104910002B0300002D0300002F03000031030000D3
:1049200032030000340300003603000038030000A7
:104930003A0300003C0300003E0300003F03000078
:10494000410300004303000045030000470300004B
:10495000490300004B0300004D0300004E0300001C
:1049600050030000520300005403000056030000EF
:10497000580300005A0300005C0300005E030000BF
:10498000600300006203000064030000660300008F
:10499000680300006A0300006C0300006D03000060
:1049A0006F03000071030000730300007503000033
:1049B00077030000790300007B0300007D03000003
:1049C0007F030000810300008303000085030000D3
:1049D000880300008A0300008C0300008E0300009F
:1049E000900300009203000094030000960300006F
:1049F000980300009A0300009C0300009E0300003F
:104A0000A0030000A2030000A4030000A70300000D
:104A1000A9030000AB030000AD030000AF030000DA
:104A2000B1030000B3030000B5030000B7030000AA
:104A3000BA030000BC030000BE030000C003000076
:104A4000C2030000C4030000C7030000C903000044
:104A5000CB030000CD030000CF030000D203000011
:104A6000D4030000D6030000D8030000DA030000DE
:104A7000DD030000DF030000E1030000E3030000AA
:104A8000E6030000E8030000EA030000EC03000076
:104A9000EF030000F1030000F3030000F503000042
:104AA000F8030000FA030000FC030000FF0300000D
:104AB00001040000030400000504000008040000D5
:104AC0000A0400000C0400000F04000011040000A0
:104AD0001304000016040000180400001A0400006B
:104AE0001D0400001F040000220400002404000034
:104AF00026040000290400002B0400002E040000FE
:104B000030040000320400003504000037040000C7
:104B10003A0400003C0400003F040000410400008F
:104B20004304000046040000480400004B04000059
:104B30004D04000050040000520400005504000021
:104B4000570400005A0400005C0400005F040000E9
:104B500061040000640400006604000069040000B1
:104B60006B0400006E040000710400007304000078
:104B700076040000780400007B0400007D0400003F
:104B80008004000083040000850400008804000005
:104B90008A0400008D0400009004000092040000CC
:104BA00095040000980400009A0400009D04000091
:104BB0009F040000A2040000A5040000A704000058
:104BC000AA040000AD040000B0040000B20400001C
:104BD000B5040000B8040000BA040000BD040000E1
:104BE000C0040000C3040000C5040000C8040000A5
:104BF000CB040000CE040000D0040000D304000069
:104C0000D6040000D9040000DC040000DE0400002B
:104C1000E1040000E4040000E7040000EA040000EE
:104C2000EC040000EF040000F2040000F5040000B2
:104C3000F8040000FB040000FE0400000005000072
:104C40000305000006050000090500000C05000032
:104C50000F050000120500001505000018050000F2
:104C60001B0500001E0500002005000023050000B4
:104C700026050000290500002C0500002F05000076
:104C80003205000035050000380500003B05000036
:104C90003E050000410500004405000047050000F6
:104CA0004A0500004E0500005105000054050000B3
:104CB000570500005A0500005D0500006005000072
:104CC0006305000066050000690500006C05000032
:104CD00070050000730500007605000079050000EE
:104CE0007C0500007F0500008205000086050000AD
:104CF000890500008C0500008F050000920500006A
:104D000096050000990500009C0500009F05000025
:104D1000A3050000A6050000A9050000AC050000E1
:104D2000B0050000B3050000B6050000B90500009D
:104D3000BD050000C0050000C3050000C705000058
:104D4000CA050000CD050000D1050000D405000013
:104D5000D7050000DB050000DE050000E1050000CE
:104D6000E5050000E8050000EC050000EF05000087
:104D7000F3050000F6050000F9050000FD05000040
:104D80000006000004060000070600000B060000F5
:104D90000E060000120600001506000019060000AD
:104DA0001C06000020060000230600002706000065
:104DB0002A0600002E06000031060000350600001D
:104DC000390600003C0600004006000043060000D3
:104DD000470600004B0600004E0600005206000089
:104DE00055060000590600005D0600006006000040
:104DF00064060000680600006C0600006F060000F4
:104E000073060000770600007A0600007E060000A8
:104E10008206000086060000890600008D0600005C
:104E20009106000095060000980600009C06000010
:104E3000A0060000A4060000A8060000AC060000C2
:104E4000AF060000B3060000B7060000BB06000076
:104E5000BF060000C3060000C7060000CB06000026
:104E6000CE060000D2060000D6060000DA060000DA
:104E7000DE060000E2060000E6060000EA0600008A
:104E8000EE060000F2060000F6060000FA0600003A
:104E9000FE06000002070000060700000A070000E7
:104EA0000E07000012070000160700001B07000095
:104EB0001F07000023070000270700002B07000042
:104EC0002F07000033070000370700003C070000F1
:104ED0004007000044070000480700004C0700009E
:104EE0005107000055070000590700005D0700004A
:104EF00061070000660700006A0700006E070000F7
:104F000073070000770700007B0700007F070000A1
:104F100084070000880700008C070000910700004C
:104F2000950700009A0700009E070000A2070000F6
:104F3000A7070000AB070000B0070000B40700009F
:104F4000B8070000BD070000C1070000C607000049
:104F5000CA070000CF070000D3070000D8070000F1
:104F6000DC070000E1070000E5070000EA07000099
:104F7000EE070000F3070000F8070000FC07000040
:104F800001080000050800000A0800000F080000E2
:104F900013080000180800001D0800002108000088
:104FA000260800002B0800002F080000340800002D
:104FB000390800003E0800004208000047080000D1
:104FC0004C08000051080000550800005A08000075
:104FD0005F08000064080000690800006E08000017
:104FE00072080000770800007C08000081080000BB
:104FF000860800008B08000090080000950800005B
:105000009A0800009F080000A4080000A9080000FA
:10501000AE080000B3080000B8080000BD0800009A
:10502000C2080000C7080000CC080000D10800003A
:10503000D6080000DB080000E0080000E5080000DA
:10504000EA080000F0080000F5080000FA08000077
:10505000FF08000004090000090900000F09000012
:1050600014090000190900001E09000024090000AD
:10507000290900002E090000330900003909000049
:105080003E09000043090000490900004E090000E4
:1050900053090000590900005E090000640900007E
:1050A000690900006E090000740900007909000018
:1050B0007F090000840900008A0900008F090000B0
:1050C000950900009A090000A0090000A509000048
:1050D000AB090000B0090000B6090000BC090000DF
:1050E000C1090000C7090000CC090000D209000076
:1050F000D8090000DD090000E3090000E90900000B
:10510000EF090000F4090000FA090000000A00009D
:10511000060A00000B0A0000110A0000170A00002E
:105120001D0A0000230A0000280A00002E0A0000C1
:10513000340A00003A0A0000400A0000460A000053
:105140004C0A0000520A0000580A00005E0A0000E3
:10515000640A00006A0A0000700A0000760A000073
:105160007C0A0000820A0000880A00008E0A000003
:10517000940A00009A0A0000A00A0000A60A000093
:10518000AC0A0000B20A0000B90A0000BF0A000021
:10519000C50A0000CB0A0000D10A0000D80A0000AE
:1051A000DE0A0000E40A0000EA0A0000F10A00003A
:1051B000F70A0000FD0A0000040B00000A0B0000C3
:1051C000100B0000170B00001D0B0000240B00004B
:1051D0002A0B0000300B0000370B00003D0B0000D5
:1051E000440B00004A0B0000510B0000570B00005D
:1051F0005E0B0000640B00006B0B0000720B0000E4
:10520000780B00007F0B0000850B00008C0B00006A
:10521000930B0000990B0000A00B0000A70B0000EF
:10522000AE0B0000B40B0000BB0B0000C20B000073
:10523000C90B0000CF0B0000D60B0000DD0B0000F7
:10524000E40B0000EB0B0000F20B0000F80B000079
:10525000FF0B0000060C00000D0C0000140C0000F9
:105260001B0C0000220C0000290C0000300C000078
:10527000370C00003E0C0000450C00004C0C0000F8
:10528000530C00005A0C0000620C0000690C000076
:10529000700C0000770C00007E0C0000850C0000F4
:1052A0008D0C0000940C00009B0C0000A20C000070
:1052B000AA0C0000B10C0000B80C0000C00C0000EB
:1052C000C70C0000CE0C0000D60C0000DD0C000066
:1052D000E50C0000EC0C0000F30C0000FB0C0000DF
:1052E000020D00000A0D0000110D0000190D000054
:1052F000200D0000280D0000300D0000370D0000CB
:105300003F0D0000460D00004E0D0000560D000040
:105310005D0D0000650D00006D0D0000750D0000B5
:105320007C0D0000840D00008C0D0000940D000029
:105330009C0D0000A30D0000AB0D0000B30D00009C
:10534000BB0D0000C30D0000CB0D0000D30D00000D
:10535000DB0D0000E30D0000EB0D0000F30D00007D
:10536000FB0D0000030E00000B0E0000130E0000EA
:105370001B0E0000230E00002C0E0000340E000057
:105380003C0E0000440E00004C0E0000550E0000C4
:105390005D0E0000650E00006D0E0000760E000030
:1053A0007E0E0000860E00008F0E0000970E00009B
:1053B000A00E0000A80E0000B00E0000B90E000004
:1053C000C10E0000CA0E0000D20E0000DB0E00006D
:1053D000E40E0000EC0E0000F50E0000FD0E0000D3
:1053E000060F00000F0F0000170F0000200F000035
:1053F000290F0000310F00003A0F0000430F00009A
:105400004C0F0000550F00005D0F0000660F0000FC
:105410006F0F0000780F0000810F00008A0F00005E
:10542000930F00009C0F0000A50F0000AE0F0000BE
:10543000B70F0000C00F0000C90F0000D20F00001E
:10544000DB0F0000E40F0000EE0F0000F70F00007C
:105450000010000009100000121000001C100000D5
:10546000251000002E100000381000004110000030
:105470004A100000541000005D100000671000008A
:10548000701000007A100000831000008D100000E2
:1054900096100000A0100000A9100000B31000003A
:1054A000BC100000C6100000D0100000D910000091
:1054B000E3100000ED100000F710000000110000E4
:1054C0000A110000141100001E1100002811000034
:1054D000321100003C110000461100004F11000085
:1054E00059110000631100006D11000078110000D7
:1054F000821100008C11000096110000A011000024
:10550000AA110000B4110000BE110000C911000072
:10551000D3110000DD110000E8110000F2110000BD
:10552000FC11000007120000111200001B12000005
:1055300026120000301200003B120000451200004D
:10554000501200005A120000651200007012000094
:105550007A120000851200008F1200009A120000DB
:10556000A5120000B0120000BA120000C51200001F
:10557000D0120000DB120000E6120000F112000061
:10558000FC12000006130000111300001C130000A1
:1055900027130000331300003E13000049130000DE
:1055A000541300005F1300006A130000751300001D
:1055B000801300008C13000097130000A21300005A
:1055C000AE130000B9130000C4130000D013000094
:1055D000DB130000E7130000F2130000FE130000CD
:1055E0000914000015140000201400002C14000001
:1055F00037140000431400004F1400005A14000038
:1056000066140000721400007E1400008A1400006A
:1056100095140000A1140000AD140000B91400009E
:10562000C5140000D1140000DD140000E9140000CE
:10563000F5140000011500000D15000019150000FB
:1056400026150000321500003E1500004A15000026
:1056500056150000631500006F1500007B15000053
:105660008815000094150000A1150000AD1500007C
:10567000BA150000C6150000D3150000DF150000A4
:10568000EC150000F91500000516000012160000C8
:105690001F1600002B1600003816000045160000EB
:1056A000521600005F1600006C160000791600000C
:1056B00085160000921600009F160000AC16000030
:1056C000BA160000C7160000D4160000E11600004C
:1056D000EE160000FB160000091700001617000068
:1056E00023170000311700003E1700004B17000081
:1056F000591700006617000074170000811700009A
:105700008F1700009C170000AA170000B8170000B0
:10571000C5170000D3170000E1170000EE170000C6
:10572000FC1700000A1800001818000026180000D6
:105730003418000042180000501800005E180000E5
:105740006C1800007A1800008818000096180000F5
:10575000A4180000B2180000C1180000CF18000003
:10576000DD180000EC180000FA180000081900000D
:105770001719000025190000341900004219000013
:10578000511900005F1900006E1900007D1900001A
:105790008B1900009A190000A9190000B81900001F
:1057A000C6190000D5190000E4190000F319000023
:1057B000021A0000111A0000201A00002F1A00001F
:1057C0003E1A00004D1A00005D1A00006C1A00001D
:1057D0007B1A00008A1A00009A1A0000A91A000019
:1057E000B81A0000C81A0000D71A0000E71A000013
:1057F000F61A0000061B0000151B0000251B000008
:10580000341B0000441B0000541B0000641B0000FC
:10581000731B0000831B0000931B0000A31B0000F0
:10582000B31B0000C31B0000D31B0000E31B0000E0
:10583000F31B0000031C0000131C0000231C0000CD
:10584000341C0000441C0000541C0000651C0000B7
:10585000751C0000851C0000961C0000A61C0000A2
:10586000B71C0000C71C0000D81C0000E81C00008A
:10587000F91C00000A1D00001B1D00002B1D00006C
:105880003C1D00004D1D00005E1D00006F1D00004E
:10589000801D0000911D0000A21D0000B31D00002E
:1058A000C41D0000D51D0000E61D0000F81D00000D
:1058B000091E00001A1E00002C1E00003D1E0000E4
:1058C0004E1E0000601E0000711E0000831E0000BE
:1058D000951E0000A61E0000B81E0000CA1E000093
:1058E000DB1E0000ED1E0000FF1E0000111F000067
:1058F000231F0000351F0000471F0000591F000034
:105900006B1F00007D1F00008F1F0000A11F000003
:10591000B31F0000C61F0000D81F0000EA1F0000D0
:10592000FD1F00000F200000222000003420000096
:1059300047200000592000006C2000007F2000005C
:1059400091200000A4200000B7200000CA20000021
:10595000DD200000F02000000321000016210000DF
:10596000292100003C2100004F210000622100009D
:1059700075210000892100009C210000AF2100005A
:10598000C3210000D6210000EA210000FD21000013
:105990001122000025220000382200004C220000C5
:1059A0006022000074220000882200009B22000078
:1059B000AF220000C3220000D7220000EB2200002B
:1059C0000023000014230000282300003C230000D3
:1059D0005123000065230000792300008E2300007E
:1059E000A2230000B7230000CB230000E023000027
:1059F000F5230000092400001E24000033240000C9
:105A0000482400005D240000722400008724000068
:105A10009C240000B1240000C6240000DB24000008
:105A2000F1240000062500001B25000031250000A0
:105A3000462500005B250000712500008725000039
:105A40009C250000B2250000C8250000DD250000CF
:105A5000F3250000092600001F260000352600005F
:105A60004B26000061260000772600008D260000EE
:105A7000A4260000BA260000D0260000E726000079
:105A8000FD260000142700002A27000041270000FF
:105A9000572700006E270000852700009B27000085
:105AA000B2270000C9270000E0270000F727000008
:105AB0000E280000252800003C2800005428000083
:105AC0006B2800008228000099280000B1280000FF
:105AD000C8280000E0280000F72800000F29000077
